S0100000415474696E7932352E7372656354
S11300000EC01BC01AC019C018C018C016C015C035
S113001014C013C012C011C010C00FC00EC01124F0
S11300201FBECFEDCDBF20E0A0E6B0E001C01D9221
S1130030A436B207E1F779D091C0E2CF1F920F92B4
S11300400FB60F9211248F93809163008F5F80937A
S11300506300813139F4809162008F5F8093620084
S1130060109263008F910F900FBE0F901F90189500
S113007040E050E0E1E0F0E0682F70E030E8B3E009
S1130080A1E02FEFCF01042E02C0880F991F0A941C
S1130090E2F786239723042E02C0959587950A9448
S11300A0E2F7809360001092620039BD8091620093
S11300B08823D9F380916000811102C08A2F01C086
S11300C08B2F8093610010926200882339F029BD40
S11300D090916200809161009817C8F34F5F5F4F61
S11300E04830510579F60895CF93DF93D82FC62F62
S11300F01092620020E829BD909162009031D8F3FB
S1130100109262002FEF29BD909162009830D8F3CD
S11301108D2FAEDF8D2F8095ABDF8C2FA9DF8C2F39
S11301208095A6DFDF91CF91089581E083BF8AB5E2
S113013083688ABD87B38FEF87BB89B7826089BF25
S1130140789463E085E0D0DF2FEF80E792E02150E0
S113015080409040E1F700C00000F3CFF894FFCF57
S9030000FC
